:020000040800F2
:10000000101E002045010008B51A000861190008FB
:10001000B11A000867120008332900080000000028
:100020000000000000000000000000006D22000839
:100030006D140008000000001F210008CD230008F7
:100040005F0100085F0100085F0100085F01000810
:100050005F0100085F0100085F0100085F01000800
:100060005F0100085F0100085F0100085F010008F0
:100070005F0100085F0100085F0100085F010008E0
:100080005F0100085F0100085F0100085F010008D0
:100090005F0100085F0100085F0100085F010008C0
:1000A0005F0100085F0100085F0100085F010008B0
:1000B0005F01000831240008652400085F01000882
:1000C0005F0100085F0100085F0100085F01000890
:1000D0005F01000885250008252700085F0100084A
:1000E0005F0100085F0100085F0100085F01000870
:1000F0005F0100085F0100085F0100085F01000860
:100100005F0100085F0100085F0100085F0100084F
:100110005F0100085F0100085F0100085F0100083F
:100120005F0100085F0100085F0100085F0100082F
:10013000DFF80CD000F0C4FE004800478D3C0008FA
:10014000101E00200648804706480047FEE7FEE7ED
:10015000FEE7FEE7FEE7FEE7FEE7FEE7FEE7FEE777
:10016000D123000831010008A0F14101192900D86C
:100170002030704740EA01039B0703D009E008C91B
:10018000121F08C0042AFAD203E011F8013B00F85C
:10019000013B521EF9D27047D2B201E000F8012BA8
:1001A000491EFBD270470022F6E710B513460A46F7
:1001B00004461946FFF7F0FF204610BD30B505464E
:1001C0002A460B4612F8010B13F8014B08B1A04266
:1001D000F8D01CB1002802D06D1CF1E7284630BDD4
:1001E000421C10F8011B0029FBD1801A704710B582
:1001F000002200E0521C835C8C5CA34201D1002BE6
:10020000F8D1D8B2E1B2401A10BD30B50546002091
:10021000034600E05B1C934205D2EC5CC85C201AEC
:1002200001D1002CF6D130BD2DE9FF4F087881B007
:100230009946FF2805D0491C2D2804D0002400230E
:1002400008E000230BE00124F9E703EB830300EB54
:100250004303491C0878FF28F7D104B15B42002012
:100260000090147801462D2C01D02B2C04D1521C67
:100270002D2C12D00024009400251678FF2E0ED0CD
:100280000A24A0FB04C801FB0481002700FB07111E
:10029000521C16EB0C006941EFE70124EBE799448F
:1002A00050EA01020ED00024AA4D2646DFF8A882AB
:1002B00000F0E2FD82468B46B9F1000009DAC9F18F
:1002C00000071BE001980021C0E9001105B0BDE85E
:1002D000F08F074612E0F80707D022462B4630463B
:1002E000414600F0ACFA0646884622462B461046A8
:1002F000194600F0A4FA04460D467F10002FEAD1FB
:10030000B9F1000F324643465046594602DA00F032
:1003100008FB01E000F093FA009A0AB181F0004175
:10032000019AC2E90001D1E72DE9FF4F1F468DB0C8
:10033000D7E901464FF0FF382E2045464FF000091F
:100340000B90B9696D1C0E988847396A82468847B8
:100350000028F6D1BAF1FF3F0AD024F4D064002E71
:1003600011DDBAF12B0F08D0BAF12D0F0BD102E03D
:10037000404611B0ABE744F48064B9696D1C0E9837
:1003800088478246761E6946600501D52D2000E02B
:100390002B208DF8000001F1010B0DF1200809E080
:1003A000B9696D1C0E98884782460F9844F4007412
:1003B000761E0560002E02DDBAF1300FF0D00B99E9
:1003C0008A453ED144F0800406E00F99681CA9F1EB
:1003D000010944F400740860B9696D1C761E0E981A
:1003E000884782463028F0D02BE00B998A4505D10A
:1003F000200603D444F08004761E18E0504602F034
:10040000D7FB08B30DF11301761E44F400748B453D
:1004100008D2AAF130000BF8010B200607D5A9F18C
:10042000010003E0200602D409F101008146A00585
:1004300002D50F99681C0860B9696D1C0E98884731
:100440008246002ED1DC53E0002E51DDBAF1650F5B
:1004500002D0BAF1450F4BD1A00549D5B9696D1C41
:1004600024F44074761E0E9888478246002E0CDDD8
:100470002B2804D0BAF12D0F07D144F48074B96948
:100480006D1C0E9888478246761EE00501D52D2109
:1004900000E02B2108F8011BCDF82C8021E00DF1A4
:1004A0002901761E44F4007488450CD2AAF130006C
:1004B00010F0FF0088F8000002D10B99884509D997
:1004C00008F1010806E0E00501D5244801E042F208
:1004D0000F708146B9696D1C0E98884782460F9847
:1004E0000560002E04DD504602F062FB0028D6D1E4
:1004F000F9690E988847FF208BF8000088F8000003
:100500000020069007904B466A4608A906A8FFF708
:100510008BFEA00502D46FF001002AE714F0240F2F
:100520000AD0E00714D1DDE906123868031D3B60EC
:100530000068C0E900120BE0DDE9060100F006FBEF
:100540000146E00704D13868021D3A600068016086
:1005500028460EE7000024400000F03FF1D8FFFFDE
:10056000F0B480EA0102D40F4200B2EB410F02D294
:100570000246084611464A0042D0C30DDDB2C1F31F
:10058000C752AD1A202D35DAC1F3160141F400022D
:1005900004B15242C5F1200602FA06F12A41104484
:1005A000B3EBD05F23D0C4B1012DA0EBC35009DC65
:1005B000F0BC4FF0004202EAC352DBB200F500008B
:1005C00000F0CFBB400000F1807000EBC350A0F101
:1005D000807040EAD170490009E0490841EAC071E1
:1005E000A0EBC35000F50000400800EBC350F0BC86
:1005F00000F0AEBB6142012202EB4101001BF6E7B5
:10060000F0BC704781F00041AAE780F00040A7E706
:1006100080EA010210B502F00043400022D04A00F7
:100620001FD0010E01EB1261C0F35600C2F3560257
:1006300040F4000042F40002A0FB022000047F39D5
:10064000140400D0401C50EA124001D44000491E5E
:10065000C2B20C0604EBD010401C4008802A02D025
:1006600003E0002010BD20F00100002900DA002086
:10067000184310BD30B480EA010202F0004530F0AA
:10068000004221F0004013D090B1C30DD40DC2F34D
:100690001601C0F31600E41A41F4000140F4000210
:1006A0007D34914201D3641C00E04900002C02DA41
:1006B00030BC002070474FF400000023914201D36A
:1006C000891A034340084FEA4101F7D151B19142E1
:1006D00002D14FF0004105E002D24FF0010101E0EC
:1006E0006FF0010103EBC450284430BC00F030BB74
:1006F0002DE9FE4F804681EA0300C00F0C460090B2
:1007000021F0004123F00045B8EB0200A94105D2D9
:100710004046214690461C460B46024623F00040C8
:10072000104347D0270DC7F30A00C3F30A510290C4
:10073000401A019040286BDAC3F3130040F4801B89
:100740000098924620B10023D2EB030A63EB0B0B17
:1007500001985946C0F14002504600F05AFA064648
:100760000D4650465946019A00F072FA10EB080007
:100770006141002487EA115284EAE7731A4340D0AA
:10078000009A62B3019A012A4FEA075215DC001B56
:1007900061EB02014FF0004202EA0752CDE900424C
:1007A000001C41F5801132462B4600F017FB03B0C8
:1007B000BDE8F08F40462146F9E7001B61EB0201DE
:1007C000001C41F5801300185B412018A2F50017AA
:1007D00047EB030140EAD570B6196D4111E06D0891
:1007E0004FEA360645EAC0754FEA0752001B61EB37
:1007F0000201001C41F5801149084FEA3000001940
:10080000514132462B4603B0BDE8F04F00F0D7BA55
:100810000098012240000023D0EB020263EBE0735A
:10082000009821464FEAE074B8EB000061EB040148
:10083000E9E783F000435BE781F0004158E72DE9E9
:10084000FE4F81EA030404F0004421F000410094CB
:100850004FF0000B23F0004350EA01045ED052EA4F
:1008600003045BD0C3F30A54C1F30A552C44A4F229
:10087000F3340194A0FB0254C1F3130141F480113D
:10088000C3F3130343F4801301FB024400FB034E44
:10089000840A970A44EA815447EA8357A4FB07680D
:1008A00002958D0A05FB07854FEA932C04FB0C5437
:1008B0002705029D4FEA065847EA1637B5EB0805AB
:1008C0006EEB070C870E920E47EA811742EA8312FD
:1008D000A7FB0201B6EB0B0164EB00042B0D43EA0E
:1008E0000C335E1844EB1C50DA465146E7FB02011C
:1008F000C5F313044FEA0B3343EA14534FEA0432AF
:10090000019C43EA0603A4F10C040294009CCDE987
:1009100000B400F063FA03B0BDE8F08F0020014698
:10092000F9E72DE9F04D81EA030404F0004B21F0D2
:10093000004514464FF0000A23F0004150EA05023A
:1009400020D054EA01021DD0C5F30A570246C5F370
:100950001303C1F31300C1F30A5640F4801543F4A6
:100960008013A7EB0608101BD64608F2FD3873EB80
:10097000050002D308F1010801E092185B41B8F1CB
:10098000000F03DA00200146BDE8F08D00204FF48F
:100990008011064684460EE0171B73EB050705D34E
:1009A000121B63EB050306434CEA010C49084FEAAE
:1009B000300092185B4150EA0107EDD152EA030082
:1009C00012D082EA040083EA0501084305D0101B17
:1009D000AB4106D20122002306E000224FF0004383
:1009E00002E06FF0010253101AEB06004CEB0851C5
:1009F00010EB0A0041EB0B01BDE8F04D00F0DFB950
:100A000096230022114600F0ACB90EB540F23341F6
:100A100002910021CDE900110A460B4600F0DEF9F3
:100A200003B000BD00F0004220F00040C10DC0F353
:100A3000160040F400007F2901DA00207047962953
:100A400003DCC1F19601C84001E096398840002AD4
:100A5000F4D04042704770B5C1F30A5201F000452E
:100A60000024C1F3130140F2FF3341F480119A4294
:100A700001DA002070BD40F233439A42A2F23342C1
:100A800003DC524200F0D4F800E090402C43F1D057
:100A9000404270BDC1F30A5210B5C1F3130140F2D8
:100AA000FF3341F480119A4201DA002010BD40F278
:100AB00033439A42A2F2334203DC524200F0B8F8C8
:100AC00010BD904010BD00F0004230F000400AD050
:100AD000C10D01F56071C0F3160042EA0151C20870
:100AE00040071143704700200146704730B5041E8F
:100AF00071F1000404DB4FF00044404264EB01015B
:100B0000141E73F1000405DB1C464FF000435242F3
:100B100063EB04038B4208BF824230BD30B5041E34
:100B200071F1000404DB4FF00044404264EB01012A
:100B3000141E73F1000405DB1C464FF000435242C3
:100B400063EB0403994208BF904230BD01F00043BB
:100B500030B421F0004150EA010206D00A0DA2F59E
:100B60006072C1F31301002A02DC30BC0020704720
:100B7000440F44EAC104C100E01830BC00EBC2508D
:100B800000F0E6B830B50B460146002020220124D3
:100B900009E021FA02F59D4205D303FA02F5491B4B
:100BA00004FA02F52844151EA2F10102F1DC30BD61
:100BB0002DE9F05F0546002092469B468846064692
:100BC000814640241BE0284641464746224600F025
:100BD0002FF853465A46C01A914110D31146184671
:100BE000224600F016F82D1A67EB01084F46224600
:100BF0000120002100F00DF817EB00094E41201EE6
:100C0000A4F10104DFDC484631462A464346BDE8EC
:100C1000F09F202A04DB203A00FA02F100207047FE
:100C20009140C2F1200320FA03F31943904070472A
:100C3000202A04DB203A21FA02F00021704721FA31
:100C400002F3D040C2F12002914008431946704798
:100C5000202A06DBCB17203A41FA02F043EAE07380
:100C600006E041FA02F3D040C2F12002914008436D
:100C700019467047426842B1016811F8013B23B13F
:100C8000521EC0E90012184670470121C160881E3B
:100C9000704742685AB1C368016843B983688B42A0
:100CA00005D0491E521CC0E90012002070474FF0C9
:100CB000FF3070470FB4002300B589B00CA9009134
:100CC0000B996FF00042CB601E4B06931E4B0793AF
:100CD0000423CDE901321D4A089202466B460020EA
:100CE000FFF722FB09B05DF814FB70B586B006462D
:100CF0004FF0FF300091CDE90101002015460C4670
:100D000004903246694604A8FFF7D4FF03460498CE
:100D1000211825B108B10A4600E022462A600028C1
:100D20000DD0002B02DD0098884208D0081B0094EB
:100D3000CDE901043246694604A8FFF7BBFF06B0BF
:100D400070BD0000750C0008930C0008E50E00084B
:100D50000029A8BF7047401C490008BF20F00100CF
:100D6000704710B4B0FA80FC00FA0CF050EA0104AD
:100D700004BF10BC704749B1CCF1200421FA04F43F
:100D800011FA0CF118BF012121430843A3EB0C0118
:100D9000CB1D4FEA00614FEA102042BF002010BC7B
:100DA000704700EBC35010440029A4BF10BC70472B
:100DB000401C490008BF20F0010010BC704710B56E
:100DC000141E73F1000408DA401C41F1000192186E
:100DD0005B411A4301D120F0010010BD2DE9F04D17
:100DE00092469B4611B1B1FA81F202E0B0FA80F26C
:100DF00020329046FFF70DFF04460F4640EA0A00F6
:100E000041EA0B0153465A46084313D0114653EAB0
:100E1000010019D0C8F140025046FFF709FF05460E
:100E20000E46504659464246FFF7F3FE084305D0AA
:100E3000012004E020463946BDE8F08D002005433E
:100E400046EAE0762C4337430A986305E40AA0EBB0
:100E500008000022FD0A44EA47540A3002D5002067
:100E60000146E9E7010510196941DDE90845001966
:100E70006941BDE8F04DA2E70EB540F2334202925F
:100E80000022CDE900221346FFF7A8FF03B000BD02
:100E9000C1F30A52C1F3130140F2FF3341F4801150
:100EA0009A4202DA00200146704740F233439A42E8
:100EB000A2F2334202DC5242FFF7BABEFFF7A9BEEC
:100EC000064C074D06E0E06840F0010394E8070097
:100ED00098471034AC42F6D3FFF72EF96C73000834
:100EE0008C730008C0B24FF4F05100F001B800005C
:100EF0007F2801D9002208E0064A02EB5002C00711
:100F0000127800D1120902F00F020120904008402F
:100F100070470000C872000870B58D1810F8014BBA
:100F200014F0030201D110F8012B231106D110F89F
:100F3000013B03E010F8016B01F8016B521EF9D17F
:100F4000ABB110F8012B04F00C048A1A0C2C03D05E
:100F5000A2EB84129B1C08E010F8014BA2EB0422C8
:100F6000F8E712F8014B01F8014B5B1EF9D5A942D5
:100F7000D4D3002070BD21B1826842F001028260AA
:100F800003E0826822F001028260704721B182682A
:100F900042F48072826003E0826822F48072826090
:100FA0007047014600208A6802F004020AB101205D
:100FB00000E000207047014600208A6802F0080225
:100FC0000AB1012000E000207047000030B5024661
:100FD0000020002350680F4C20400D790C6844EA33
:100FE00005242043506090680B4C2040D1E9025406
:100FF0002C434D7944EA450420439060D06A20F4A4
:1010000070000C7C641EE4B2234340EA0350D062BB
:1010100030BD0000FFFEF0FFFDF7F1FFF0B5044624
:101020000D4600200021092D11DDE068A5F10A061A
:1010300006EB4607072606FA07F18843A5F10A06DC
:1010400006EB460603FA06F10843E0600CE020696F
:1010500005EB4507072606FA07F1884305EB450629
:1010600003FA06F108432061072A0FDA606B561E67
:1010700006EB86071F2606FA07F18843561E06EB85
:10108000860605FA06F10843606322E00D2A0FDAAE
:10109000206BD61F06EB86071F2606FA07F188434A
:1010A000D61F06EB860605FA06F10843206310E01A
:1010B000E06AA2F10D0606EB86071F2606FA07F185
:1010C0008843A2F10D0606EB860605FA06F10843F1
:1010D000E062F0BD816841F008018160704721B194
:1010E000826842F4A002826003E0826822F4A002D7
:1010F00082607047816841F00401816070470000A0
:1011000000B591B00121480201F036F80121082014
:1011100001F032F80121084601F00EF84FF40040CA
:1011200000F0FEFF00208DF843000720ADF84000DE
:1011300003208DF8420010A9334800F017FB052367
:10114000012208213148FFF769FF05230222092106
:101150002E48FFF763FF052303220A212B48FFF7E0
:101160005DFF00200B900E904FF460200D90012049
:101170008DF831008DF8300003208DF83C000BA96C
:101180002248FFF723FF21484C300090801506903D
:10119000002004901E4801904FF48060079080204A
:1011A000059000200290032003902020089000204A
:1011B0000A904FF4805009906946164800F038F9BB
:1011C0000121144800F028F901211048FFF7DEFE44
:1011D00001210E48FFF7CFFE0C48FFF77BFF00BF51
:1011E0000A48FFF7E8FE0128FAD00848FFF782FF17
:1011F00000BF0648FFF7D5FE0128FAD001210348B9
:10120000FFF76DFF11B000BD000C0140002401404C
:10121000BC0800200800024010B5044602F0C8FCDB
:10122000462002F09BFC02F0EBFC012800D110BD2F
:10123000204602F093FC02F0E3FC012801D10220D9
:10124000F5E702F0CDFC0020F1E710B500F08AFBD5
:1012500000F004F81020FFF7DFFF10BD10B50120EB
:10126000FFF7DAFF10BD00BFFEE7000010B5002455
:1012700000F05CFB04E0601CC4B2012002F0AAF99B
:1012800080210F4800F046FB08B9642CF3DB642C86
:1012900001DB002010BD002404E0601CC4B201206A
:1012A00002F098F98021064800F034FB08B1642C64
:1012B000F3DB642C01DB0020ECE70120EAE700000F
:1012C000000C014010B50121082000F055FF8020DE
:1012D000064908801020C87003208870044800F078
:1012E00045FA00F081F8FFF7C1FF10BDA00800200B
:1012F000000C014010B5002404E0601CC4B20120C1
:1013000002F068F98021104800F004FB08B1642C59
:10131000F3DB002404E0601CC4B2012002F05AF99F
:101320008021094800F0F6FA08B9642CF3DB1E208E
:1013300002F050F98021044800F0ECFA08B10120D5
:1013400010BD0020FCE70000000C014070B5002437
:10135000002506E06006040EFFF7CCFF0443681C7E
:10136000C5B2082DF6DB204670BD00002DE9FC4714
:1013700081468A4600F038F8FFF778FF01282BD124
:10138000002405E0FFF7E2FF0DF80400601CC4B282
:10139000052CF7DB9DF800009DF8011008449DF82E
:1013A000021008449DF8031008449DF80410884278
:1013B00015D19DF80000FFF728FB07460022094BD6
:1013C000FFF7AFFA0546FFF765FB8AF800009DF8C6
:1013D000020089F8000002E00020BDE8FC8701203F
:1013E000FBE700000000F83F10B500F0ABFA8021E9
:1013F000084800F098FA142002F0C6F88021054849
:1014000000F0ACFA1E2002F0E5F88021014800F05F
:101410008AFA10BD000C014021B1026842F00102BD
:10142000026004E002684FF6FE731A4002607047E3
:1014300010B50022026847F6F0739A430C6A8B6875
:1014400023430C6923434C6923438C692343CC69B0
:1014500023434C6A23438C6A23431A430260CB68BC
:1014600043600B6883604B68C36010BD7047000029
:1014700008B502230B220021084600F089FC022354
:101480000D221021002000F083FC042343222021A0
:10149000002000F07DFC042347223021002000F0D2
:1014A00077FC012010231EA200210090212000F0D3
:1014B000F5FD012010231AA219460090212000F00A
:1014C000EDFD0120102316A220210090412000F004
:1014D000E5FD0120102312A230210090412000F0F0
:1014E000DDFD012315221946412000F051FC0120A9
:1014F00010230CA219460090412000F0CFFD0120DE
:10150000102309A220210090642000F0C7FD0120D3
:10151000102306A2302100905D2000F0BFFD08BD21
:101520003A0000002552480025000000254C5800D4
:101530002DE9F84F04460D4617461E46DDE90B9A85
:10154000DDF828800120102349A22A2100903220B2
:1015500000F0A4FD00F0E8FB00BF41F2883245A195
:1015600045A003F0FFFA0028F7D04FF4FA7002F01C
:101570000BF800BF41F288323EA142A003F0F2FA1C
:101580000028F7D04FF4FA7001F0FEFF012010237D
:1015900040A22A210090322000F080FD00F0C4FB20
:1015A0002B4622463CA1424801F0D6F900BF41F249
:1015B000883230A13E4803F0D5FA0028F7D040F633
:1015C000B83001F0E1FF012010233AA22A21009057
:1015D000322000F063FD00F0A7FB4346324636A1FF
:1015E0004048CDF8009001F0B7F900BF41F28832D1
:1015F00020A13C4803F0B6FA0028F7D04FF4FA6077
:1016000001F0C2FF3A4638A13E4801F0A5F900BFFB
:1016100043F6982217A13B4803F0A4FA0028F7D01C
:101620004FF47A7001F084FF0120102336A22A21A2
:1016300000902E2000F032FD00F076FB524634A1DF
:10164000394801F089F900BF41F2883209A13648D2
:1016500003F088FA0028F7D0C8213448FEF7A3FD2C
:10166000002033490880012032490860BDE8F88F26
:10167000323525004F4B000041542B5253540D0A74
:101680000000000041542B43574D4F44453D310D60
:101690000A0000003530250041542B43574A415081
:1016A0003D222573222C222573220D0A0000000002
:1016B000440F00203735250041542B4D51545455CB
:1016C0005345524346473D302C312C222573222C62
:1016D000222573222C222573222C302C302C2222FE
:1016E0000D0A00004410002041542B4D5154544326
:1016F0004F4E4E3D302C222573222C313838332C5E
:10170000300D0A0044110020313030250000000067
:1017100041542B4D5154545355423D302C22257386
:10172000222C300D0A000000441200204417002033
:10173000D4080020780800202DE9FE4304460D4619
:1017400016461F46DDF828802B46224605490648E6
:101750008DE8C00101F000F9034801F0EDF8BDE8A3
:10176000FE83000008730008441300202DE9F041B7
:10177000024600250026002000230024002791F8BF
:1017800003C00CF00F0591F803C00CF0100CBCF175
:10179000000F03D091F802C04CEA050591F800C093
:1017A000BCF1000F31D0146800202BE04FF0010C89
:1017B0000CFA00F3B1F800C00CEA03069E4220D1F7
:1017C00083004FF00F0C0CFA03F7BC4305FA03FC3F
:1017D0004CEA040491F803C0BCF1280F06D14FF085
:1017E000010C0CFA00FCC2F814C00AE091F803C026
:1017F000BCF1480F05D14FF0010C0CFA00FCC2F807
:1018000010C0401C0828D1D31460B1F800C0BCF14E
:10181000FF0F34DD546800202EE000F1080C4FF07B
:10182000010808FA0CF3B1F800C00CEA03069E4266
:1018300021D183004FF00F0C0CFA03F7BC4305FADB
:1018400003FC4CEA040491F803C0BCF1280F05D155
:1018500000F1080C08FA0CF8C2F8148091F803C0E3
:10186000BCF1480F07D100F1080C4FF0010808FA4D
:101870000CF8C2F81080401C0828CED35460BDE894
:10188000F0810000F0B50A46002300240021002565
:1018900000F00046B6F1004F02D11D4EF16901E0A3
:1018A0001B4E7168C0F3034583B200F44016B6F5D1
:1018B000401F08D121F07061154E766826F07066E1
:1018C000134F7E6012E000F48016B6F5801F06D13B
:1018D000032606FA05F4A14341F0706106E0460DC7
:1018E000360103FA06F6B14341F0706122B1460DAC
:1018F000360103FA06F6314300F00046B6F1004F18
:1019000002D1034EF16101E0014E7160F0BD0000B3
:10191000000001400246002093680B400BB10120FB
:1019200000E00020704741617047000010B50420BE
:101930000249C8700248FFF719FF10BDA008002037
:10194000000C014010B510200249C8700248FFF792
:101950000DFF10BDA0080020000C01400161704780
:1019600000BFFEE708B50121082000F005FC60205B
:10197000ADF8000003208DF8020014208DF803005C
:1019800069460348FFF7F2FE02F02AF908BD00009D
:10199000000C014010B502210A48FFF7DFFF0121CA
:1019A0000848FFF7DBFF00F037F802210548FFF792
:1019B000BAFF00F031F801210248FFF7B4FF00F050
:1019C0002BF810BD0008014010B502210648FFF7B2
:1019D000AAFF01210448FFF7C1FF00F01DF8022112
:1019E0000148FFF7BBFF10BD0008014010B5022100
:1019F0000848FFF7B3FF00F00FF801210548FFF793
:101A0000ADFF00F009F801210248FFF78CFF00F05C
:101A100003F810BD00080140032000BF011EA0F123
:101A20000102D0B2FAD1704708B50121042000F0BC
:101A3000A3FB0121092000F09FFB01211948FFF7BA
:101A400021FF48208DF803004FF21000ADF8000090
:101A500003208DF8020069461348FFF787FE102027
:101A60008DF803000820ADF8000003208DF8020077
:101A700069460D48FFF77AFE08210B48FFF753FF30
:101A800010208DF803007020ADF8000003208DF8C1
:101A9000020069460548FFF769FE70210348FFF719
:101AA00042FF08BD00023000000C01400008014068
:101AB00000BFFEE77047000070B5002100230F2231
:101AC000C47804B3154C246804F4E064C4F5E064FD
:101AD000210AC1F10403CA40447804FA03F184786E
:101AE0001440214309010E4C0678A155047804F0F6
:101AF0001F050124AC4005786D11AD0005F1E0250E
:101B0000C5F8004109E0047804F01F050124AC4049
:101B1000044D0678761145F8264070BD0CED00E0C6
:101B200000E400E080E100E070B500240CE0002556
:101B300006E00020074901EBC5010855681CC5B245
:101B4000802DF6DB601CC4B2082CF0DB00F0ECF852
:101B500070BD0000F4080020F0B514460B46CF1706
:101B600001EB5777C7F3C702CF1701EB5777FF1089
:101B7000A1EBC707FEB20123B340DDB24CB1134B5A
:101B800003EBC0039B5C2B43104F07EBC007BB5418
:101B90001AE00E4B03EBC0039B5CDB430B4F07EBE0
:101BA000C007BB54094B03EBC0039B5C2B43074F9F
:101BB00007EBC007BB54054B03EBC0039B5CDB4347
:101BC000024F07EBC007BB54F0BD0000F408002033
:101BD00008B50121042000F0CFFA0320ADF8000081
:101BE00014208DF8030003208DF802006946474851
:101BF000FFF7BCFD03214548FFF7B0FE0420ADF818
:101C0000000010208DF8030003208DF802006946C3
:101C10003E48FFF7ABFD04213C48FFF79FFE04213F
:101C20003A48FFF780FEC82001F0AEFC0421374897
:101C3000FFF794FE0021AE2000F055FA002108467F
:101C400000F051FA0021102000F04DFA0021402050
:101C500000F049FA0021812000F045FA0021CF2050
:101C600000F041FA0021A12000F03DFA0021C82037
:101C700000F039FA0021A62000F035FA0021A82052
:101C800000F031FA00213F2000F02DFA0021D3208E
:101C900000F029FA0021084600F025FA0021D5209D
:101CA00000F021FA0021802000F01DFA0021D92047
:101CB00000F019FA0021F12000F015FA0021DA20D5
:101CC00000F011FA0021122000F00DFA0021DB20B3
:101CD00000F009FA0021302000F005FA0021202050
:101CE00000F001FA0021022000F0FDF900218D2012
:101CF00000F0F9F90021142000F0F5F9FFF714FFC6
:101D00000021AF2000F0EFF908BD000000080140FD
:101D100010B50246012000E050430B1EA1F1010462
:101D2000E1B2F9D110BD000070B500242BE004F140
:101D3000B001C8B2002100F0D6F90021084600F039
:101D4000D2F90021102000F0CEF9FFF723FE782011
:101D500000F08EFAFFF74AFE402000F089FAFFF704
:101D600045FE002509E0094901EBC501085D00F0C9
:101D70007FFAFFF73BFE681CC5B2802DF3DBFFF74F
:101D800023FE601CC4B2082CD1DB70BDF408002017
:101D90002DE9F8430446884615461E464FF01009C3
:101DA00000270EE0012010232A46414600902046DD
:101DB00000F0ACF804EB0900C4B2681CC5B2781C92
:101DC000C7B2B742EEDBFFF7AFFFBDE8F883000014
:101DD0002DE9FE4F0746884692461C460197CDF8EE
:101DE0000080082C02D14FF006091FE02046E317BF
:101DF00004EB5373DB1021464FEAE47C04EB5C7C7C
:101E00004FEAEC0CA4EBCC0CBCF1000F02D04FF06D
:101E1000010C01E04FF0000C6344224604EBD27C3D
:101E20004FEA6C0C03FB0CF303F0FF09AAF120004E
:101E3000C6B200255EE0082C07D106EB46002F490C
:101E400001EB400010F805B01DE00C2C07D106EBAB
:101E500046002B4901EB800010F805B013E0102C70
:101E600005D1284800EB061010F805B00BE0182C3F
:101E700007D106EBC600244901EB800010F805B03D
:101E800001E0BDE8FE8F002002901CE00BF0010095
:101E900028B1414638460C9AFFF75EFE09E00C98DF
:101EA00008B9012000E00020024641463846FFF70D
:101EB00053FE4FEA6B0B08F1010000F0FF08029897
:101EC000401CC0B2029002980828DFDB781CC7B221
:101ED000082C0BD004EBD4714A100199791A8A426C
:101EE00004D1019F00980830C0B20090DDF8008056
:101EF000681CC5B24D459EDB00BFC2E7B84B000869
:101F0000E04D000854520008445800082DE9FC4FE9
:101F10000746884616461C46BB46CDF80480204638
:101F2000E21704EB5272D2102146E31704EB53730D
:101F3000DB10A4EBC3030BB1012300E000231A4420
:101F4000624392B20092002555E0102C05D12C4836
:101F500000EB461010F805A01BE0182C07D106EB8B
:101F6000C600284901EBC00010F805A011E0202CA4
:101F700005D1254800EBC61010F805A009E0402C5B
:101F800005D1224800EB462010F805A001E0BDE88D
:101F9000FC8F4FF000091CE00AF0010028B1414617
:101FA00038460B9AFFF7D8FD09E00B9808B90120D5
:101FB00000E00020024641463846FFF7CDFD4FEADB
:101FC0006A0A08F1010000F0FF0809F1010000F0C1
:101FD000FF09B9F1080FDFDB781CC7B2A7EB0B00D4
:101FE000A04204D15F4601980830C0B20190DDF8EC
:101FF0000480681C85B200988542A6DB00BFC6E756
:10200000A06500080070000848700008C87000084B
:102010002DE9FF4F82B0064691461F46DDE90F4A83
:102020004FF0000B082C01D14FF0020B002530E0DF
:10203000781B401EC1B20A20FFF76AFEB9FBF0F020
:102040000A21B0FBF1F201FB1208B8F1000F0ED12A
:1020500004EBD4710BEB610101FB0561C8B22346AF
:102060003022CDE900A40399FFF7B2FE0FE004EBA4
:10207000D4710BEB610101FB0561C8B208F13001BD
:10208000CAB22346CDE900A40399FFF7A1FE681C5C
:10209000C5B2BD42CCDB06B0BDE8F08F2DE9F841FA
:1020A00006460F4614461D46DDF81C8013E0CDF8A9
:1020B000008022782B4639463046FFF789FE082DEE
:1020C00002D1B01DC6B205E0284605EBD07106EB83
:1020D0006101CEB2641C2078202802DB20787E28A3
:1020E000E5DDBDE8F88170B505460C46FFF752FC0A
:1020F000782000F0BDF8FFF779FC1CB1402000F01B
:10210000B7F802E0002000F0B3F8FFF76FFC2846B4
:1021100000F0AEF8FFF76AFCFFF756FC70BD7047A1
:1021200001460020034A506820F4404008435060B4
:10213000704700000010024029B1064A526902436C
:10214000044B5A6104E0034A52698243014B5A61CD
:10215000704700000010024029B1064AD2690243CC
:10216000044BDA6104E0034AD2698243014BDA612D
:10217000704700000010024029B1064A92690243EC
:10218000044B9A6104E0034A92698243014B9A61CD
:10219000704700000010024030B5002100220024EA
:1021A00000232D4D6D6805F00C0121B1042905D0E7
:1021B000082923D105E0294D056022E0274D05605F
:1021C0001FE0254D6D6805F47012234D6D6805F410
:1021D0008034022505EB92421CB9214D5543056020
:1021E0000BE01D4D6D6805F400351DB11C4D5543C8
:1021F000056002E0194D5543056002E0174D05608A
:1022000000BF00BF144D6D6805F0F0010909154DC0
:102210006B5C0568DD4045600F4D6D6805F4E0615D
:10222000090A104D6B5C4568DD4085600A4D6D689C
:1022300005F46051C90A0B4D6B5C4568DD40C56013
:10224000054D6D6805F44041890B074D6B5CC56811
:10225000B5FBF3F5056130BD0010024000127A00B5
:1022600000093D00D6080020E60800207047000065
:1022700070B5044600251BE004F0800020B1022167
:102280000D48FFF76BFB03E002210B48FFF74BFB08
:10229000FFF7C2FB01210848FFF760FBFFF7BCFB1B
:1022A00001210548FFF73FFB6006040E681CC5B21C
:1022B000082DE1DB70BD00000008014010B500F002
:1022C00001F810BD0CB50020019000903348006863
:1022D00040F480303149086000BF3048006800F4A5
:1022E000003000900198401C0190009818B90198A6
:1022F000B0F5A06FF1D12948006800F4003010B1AA
:102300000120009001E0002000900098012843D1B6
:102310002348006840F01000214908600846006822
:1023200020F0030008600846006840F002000860E2
:102330001A4840681949486008464068486008469D
:10234000406840F4806048600846406820F47C1093
:1023500048600846406840F4E81048600846006855
:1023600040F08070086000BF0C48006800F000700A
:102370000028F9D00948406820F003000749486068
:102380000846406840F00200486000BF03484068CB
:1023900000F00C000828F9D10CBD0000001002402C
:1023A00000200240042808D14FF0E021096941F0E3
:1023B00004014FF0E022116107E04FF0E0210969CC
:1023C00021F004014FF0E0221161704770470000D6
:1023D00010B51348006840F0010011490860084634
:1023E0004068104908400E494860084600680E4998
:1023F00008400B4908600846006820F48020086007
:102400000846406820F4FE0048604FF41F008860D2
:10241000FFF754FF4FF000600449086010BD000052
:10242000001002400000FFF8FFFFF6FE08ED00E09C
:1024300010B50121094800F036F868B10848008855
:1024400040F40040064908800121044800F01CF8CF
:102450000021024800F01BF810BD000000040040FD
:10246000D408002010B50121054800F01CF830B157
:102470000120044908600121014800F005F810BD61
:102480000008004074080020CA430282704721B14E
:10249000028842F00102028004E002884FF6FE73D7
:1024A0001A400280704730B5024600200023002405
:1024B000158A05EA0103958905EA010413B10CB1F7
:1024C000012000E0002030BD1AB183890B438381D5
:1024D00002E083898B4383817047818470470000C9
:1024E000002202881D4B98420ED01D4B98420BD003
:1024F000B0F1804F08D01B4B984205D01A4B984240
:1025000002D01A4B984204D14FF68F731A404B8871
:102510001A43174B984207D0164B984204D04FF6F7
:10252000FF431A40CB881A4302808B8883850B882F
:1025300003850A4B98420BD0094B984208D00E4BAA
:10254000984205D00D4B984202D00D4B984201D1D4
:102550000B7A03860123838270470000002C014020
:10256000003401400004004000080040000C00401E
:1025700000100040001400400040014000440140B1
:10258000004801402DE9F84F40F225514D4800F038
:1025900010F9F0B14B4800F0C7F9C5B24A480088BD
:1025A000B0F5C87F15DA00214848FFF796FF464886
:1025B000008830B94648006818B901214348FFF740
:1025C00066FF414801880088401C3F4A108041480E
:1025D000455440F224413B4800F0EBF800286ED00F
:1025E0003B480068002861D03BA13A48FDF7E6FD72
:1025F0003A4908603AA139480068FDF7DFFD064610
:1026000039A136480068FDF7D9FD074638A133489F
:102610000068FDF7D3FD804637A130480068FDF71C
:10262000CDFD814636A12D480068FDF7C7FD8246E5
:1026300035A12A480068FDF7C1FD834634A127482B
:102640000068FDF7BBFD009033A124480068FDF74A
:10265000B5FD044616B101203149086017B10220CA
:102660002F490860B8F1000F02D003202C49086000
:10267000B9F1000F02D0042029490860BAF1000F17
:1026800002D0052026490860BBF1000F02D00620C9
:1026900023490860009810B107202149086014B14F
:1026A00008201F49086000200749088010210548BC
:1026B00000F06AF8034800880248001D0088BDE861
:1026C000F88F000000380140D408002000040040CA
:1026D00078080020441700207B220000CC0800204E
:1026E000224C4544223A3100224C4544223A3000E3
:1026F0002246414E223A31002246414E223A3000D3
:10270000455F54454D500000455F48554D00000061
:10271000455F53554E000000455F534D4F47000045
:102720007008002010B540F22551144800F041F81F
:1027300080B113480088C8280CDA104800F0F4F87B
:10274000C4B210480E49098844540D480088401C02
:102750000B49088040F22441084800F02AF858B19B
:102760000020074908801021044800F00DF80348B4
:1027700000880248001D008810BD00000044004091
:10278000A4080020740D002001F40072B2F5007F4F
:1027900000D100BFCA430280704721B1828942F450
:1027A0000052828104E082894DF6FF731A408281D3
:1027B000704770B50246002400230025002040F633
:1027C0006A16B14200D100BFC1F3421501F01F03E8
:1027D000012606FA03F3012D02D19689334006E063
:1027E000022D02D1168A334001E0968A33400C1242
:1027F000012606FA04F41688344013B10CB1012006
:1028000000E0002070BDF0B503460024002600253E
:10281000002040F66A17B94200D100BF1846C1F344
:10282000421401F01F06012707FA06F5012C01D119
:102830000C3004E0022C01D1103000E014301AB149
:1028400007682F43076002E00768AF430760F0BDE9
:102850002DE9F04786B005460E460024A24600BF8B
:10286000A1460027B08900B100BF2F462C8A4CF644
:10287000FF700440F08804432C82AC894EF6F310BC
:102880000440B08831890843718908430443AC810E
:10289000AC8A4FF6FF400440B0890443AC8201A8E3
:1028A000FFF77AFC1F48874202D1DDF810A001E053
:1028B000DDF80CA0A88900F4004040B10AEBCA0082
:1028C00000EB0A1031684900B0FBF1F807E00AEBB1
:1028D000CA0000EB0A1031688900B0FBF1F86420EF
:1028E000B8FBF0F004012009642101FB1089A889DC
:1028F00000F4004040B1322000EBC900B0FBF1F021
:1029000000F00700044308E0322000EB09106421C6
:10291000B0FBF1F000F00F0004432C8106B0BDE8DD
:10292000F08700000038014001468888C0F30800A5
:10293000704700BFFEE700000FB4054B10B503A9B8
:10294000044A029800F03CF910BC5DF814FB00004A
:10295000A9380008D00800200FB4084B10B504A90E
:1029600002AA039800F02CF9044602A9002000F006
:10297000BEFC204610BC5DF814FB0000EF320008DE
:1029800030B528B1144C031F002021680A4605E029
:10299000084630BD9A4203D810465268002AF9D141
:1029A000002800D041680BD00468A3EB0005A542C5
:1029B00004D11B681C440346046002E0436000E04D
:1029C00023603AB11C68D51AA54203D115682C447E
:1029D0001C6052685A6030BDEC0800202DE9F047B9
:1029E00082460F4C10480D4E0E4F001B4FF0000852
:1029F00020F007054FF0010900221146504601F072
:102A00001DF9002802D1306810B10020BDE8F08720
:102A10003C60C4E90058C6F80090EDE7F0080020DB
:102A200014180020EC080020101A002002E008C84A
:102A3000121F08C1002AFAD170477047002001E038
:102A400001C1121F002AFBD1704700002DE9FF5F72
:102A5000DDE90220010DDDF838B0024318D044F65C
:102A60001050A1F2FF3141430D140F98012820D0DE
:102A7000A5EB0B00401C5FEA000A4FF00004474E34
:102A8000DFF81C91A046504616D5CAF1000728E091
:102A90000F98012443A2012808D0002100980F9B21
:102AA000C0E90021C0E90243BDE8FF9F6FEA0B01C6
:102AB000F4E7CBF10000DEE7074612E0F80707D0A5
:102AC0002246334640464946FDF7B9FE80468946D0
:102AD0002246334610461946FDF7B1FE04460E461F
:102AE0007F10002FEAD1DDE90201BAF1000F424662
:102AF0004B4602DAFDF7A3FE01E0FDF712FF0446A4
:102B00000E460022284BFEF709F803D84FF0FF309D
:102B1000014607E00022254B20463146FDF7E8FD3F
:102B2000FEF7B6F9102409E0002C0ADB0A22002384
:102B3000FEF73EF8019B30321A55641E50EA01023E
:102B4000F2D1641C019AC4F1110314440F9A012AB2
:102B500003D0012208430DD10AE0084304D000202D
:102B60004FF0110B0F9080E7A3EB0B056D1E0DE0EE
:102B70005B4504DD4FF0000205F1010504E003DAD6
:102B80004FF00002A5F10105002AECD000980F9942
:102B9000C0E90231C0E9004586E70000000024409A
:102BA0000000F03F300000000000F0430000E03F74
:102BB00030380A2801D201207047002070470000F9
:102BC0002DE9FF4F95B09B468946064600250FE24A
:102BD000252877D100242746F84A0121059400E0F2
:102BE000044316F8013F203B01FA03F01042F7D1ED
:102BF00030782A2811D06FF02F033078A0F13002FE
:102C0000092A16D8059A44F0020402EB820203EB6B
:102C100042021044761C0590EFE759F8042B059208
:102C2000002A03DA504244F40054059044F00204B0
:102C3000761C30782E2816D116F8010F44F00404C3
:102C40002A280DD06FF02F023078A0F13003092B25
:102C500009D807EB870302EB4303C718761CF3E799
:102C600059F8047B761C30786C280FD006DC4C2891
:102C700017D068280DD06A2814D104E0742810D029
:102C80007A280FD10DE044F400140AE044F48014D3
:102C900001E044F440147278824202D104F58014B9
:102CA000761C761C307866280BD013DC582877D039
:102CB00009DC002875D04528F6D04628F4D04728EE
:102CC0001AD19DE118E0632835D0642879D06528B1
:102CD00012D195E1702873D008DC6728F1D06928FB
:102CE0006FD06E280DD06F2806D1B5E073282CD098
:102CF000752875D0782874D05A46179990476D1C5E
:102D000075E1C4F30250022809D003280DD0D9F888
:102D1000001004280DD00D6009F1040967E1D9F80D
:102D20000010EA17C1E90052F6E7D9F800100D804B
:102D3000F2E70D70F0E719F8041B8DF80010002081
:102D40008DF80100EA46012003E059F804AB4FF08A
:102D5000FF3061074FF0000102D40DE008F10101DE
:102D60008846B9420FDA8045F8DB1AF808100029C6
:102D7000F4D108E008F1010188468142FADB1AF833
:102D800008100029F6D105985B46A0EB08072146FC
:102D90003846179A00F094FA284400EB080507E03B
:102DA0004DE029E10DE01AF8010B5A4617999047BA
:102DB000B8F10108F7D25B4621463846179A13E16D
:102DC00042E00A220092C4F302524FF0000A022AA3
:102DD00008D059F804CB032A4FEAEC710AD00DE071
:102DE00029E02AE009F1070121F00702F2E802C117
:102DF000914609E00FFA8CFC4FEAEC71042A03D1EA
:102E00004FFA8CFC4FEAEC71002907DA0A460021E0
:102E1000DCF1000C61EB02012D2202E0220504D559
:102E20002B228DF80420012203E0E20701D02022AA
:102E3000F7E7904659E00A2102E010220DE0102148
:102E40004FF0000A00910BE010224FF0000A44F00E
:102E500004040827009203E008224FF0000A0092C1
:102E6000C4F30252022A05D059F804CB0021032AE8
:102E700008D009E009F1070121F00702F2E802C1D8
:102E8000914605E01FFA8CFC042A01D10CF0FF0CDE
:102E90004FF00008220728D5702806D0009B83F049
:102EA000100353EA0A0305D00EE040228DF80420F7
:102EB000012208E05CEA010206D030228DF80420ED
:102EC0008DF8050002229046009B83F0080353EA28
:102ED0000A030AD15CEA010201D1620705D530225A
:102EE0008DF804204FF001087F1E582804D034A02C
:102EF00003900EA802900DE036A0F9E75346604615
:102F0000009AFDF755FE84460398825C0298401EA5
:102F1000029002705CEA0100F0D1029806A9081A3A
:102F200000F1200A600702D524F4803400E0012774
:102F3000574502DDA7EB0A0000E0002000EB0A0184
:102F4000009005984144401A0590E00306D45B4682
:102F50002146179A059800F0B3F90544002706E0CA
:102F600001A85A46C05D179990476D1C7F1C4745C4
:102F7000F6DBE0030CD55B462146179A059800F076
:102F80009FF9054404E030205A46179990476D1C7C
:102F90000099481E00900029F5DC08E0029802998B
:102FA0005A460078491C0291179990476D1CBAF156
:102FB0000001AAF1010AF1DC65E100000928010025
:102FC000303132333435363738396162636465669F
:102FD0000000000030313233343536373839414261
:102FE000434445460000000000F058F90544761CB3
:102FF000307800287FF4ECAD19B02846BDE8F08F9A
:10300000620700D4062709F1070222F0070CFCE84A
:103010000223E14603F000485FEA080C02D00FF2F9
:10302000702C0DE05FEA045C02D50FF2682C07E01B
:103030005FEAC47C02D00FF2602C01E0AFF2700CAA
:103040004FF0FF3823F00043CDF850C065280CD076
:1030500006DC452809D046281DD047283DD13DE053
:10306000662818D067287ED138E00021112F01DBB7
:10307000112000E0781CCDE9000106A90EA8FFF799
:10308000E5FCDDE90F010E9A03910021009207F1A2
:10309000010A04914DE04FF000400097CDE9011086
:1030A00006A90EA8FFF7D2FCDDE90F0203920E9BE2
:1030B00011990022DDF80CA00093049211B9791C3B
:1030C00000EB010AB7EB0A0004D4C0F1FF3007F1AE
:1030D000010A0490AAEB0700019044E0012F00DAF6
:1030E00001270021112F01DD112000E03846CDE934
:1030F000000106A90EA8FFF7A9FCDDE90F010E9A51
:103100000391002104910092BA4621070CD403993F
:10311000514500DA8A46BAF1010F05DD009AAAF19D
:103120000101515C302908D0B84202DA10F1040FD5
:1031300006DA0121CDE9011015E0AAF10101E9E764
:10314000002805DC049901440491AAEB000102E087
:10315000411C514500DD8A460499401A401C0190EB
:103160004FF000400290200704D40198504501DB45
:10317000CDF8048000208DF84F0002980DF14F0724
:10318000B0F1004F25D02B200E9002984FF002088E
:1031900000280CDA404202902D200E9007E00A2110
:1031A0000298FDF7EFFC3031029007F8011DB8F1ED
:1031B0000001A8F10108F2DC02980028EFD1791E85
:1031C0000E980870307800F0200040F0450007F8B5
:1031D000020D12A8C01B00F107081498007800B176
:1031E000012000EB0A01019801EBE07105984144D0
:1031F000401A401E0590E00306D45B462146179A0C
:10320000059800F05DF805441498007818B15A4606
:10321000179990476D1CE00324D55B462146179A09
:10322000059800F04DF805441CE00498002807DBE1
:10323000DDE90301884203DD0098405C179901E055
:10324000179930205A469047049805F10105401C13
:1032500004900198401E019004D12E205A461799DF
:1032600090476D1CBAF10001AAF1010ADDDC05E00E
:1032700017F8010B5A46179990476D1CB8F10001D9
:10328000A8F10108F4DC5B462146179A0598ABE6E5
:103290002D0000002B000000200000002DE9F0416F
:1032A000044600251E461746880404D405E0394626
:1032B0002020B0476D1C641EF9D52846BDE8F0817A
:1032C0002DE9F041044600251E469046C80301D56D
:1032D000302700E02027880404D505E04146384621
:1032E000B0476D1C641EF9D52846BDE8F0810A6818
:1032F000531C0B6010707047014609B1086808B98B
:103300000020704719B1D1E90120904201D308464D
:10331000F7E702E08868401C886041B1D1E90120EC
:10332000904204D28A680868805C2028F2DDD1E9E6
:103330000120904202D18868401E88600846E0E77C
:1033400070B50446002522E02568A08900F480704D
:1033500020B9A06810B1A068FFF7F2FFA08900F4BF
:10336000807028B9206918B10A4A206951688847D5
:10337000A08900F4007028B9206A18B1054A206AB3
:103380005168884703484168204688472C46002CEE
:10339000DAD170BDB008002070B504460D46002299
:1033A0002946204600F0E6FA70BD70B50446282094
:1033B0002168884705461DB128212846FCF7F3FE01
:1033C000284670BD10B5044600221146204600F084
:1033D0006BF810BD2DE9F0478AB004460E4615463D
:1033E00098461C2103A8FCF7DEFE002700202C498C
:1033F0000860486004B106B932E0039404960020E6
:103400000590284A07CA07AB07C32648FFF7CDFF38
:10341000074607B924E003A801F02CFA8246FFF71B
:103420006BFF81464946384601F0DCF800B917E0E9
:10343000B8F1000F0BD003A8FFF75EFFDDE9041021
:10344000884203D205990398405C00B108E01DB1A1
:10345000059903980844286038460AB0BDE8F0870B
:1034600017B13846FFF76CFFC4B1019400200290F9
:10347000DDE90410884202D20598029004E0049825
:1034800010B10498401E02901DB1DDE9010108440D
:1034900028600348DDE9011206C000BF0020DCE718
:1034A000A8080020B00800202DE9F04104460D4690
:1034B000164614B90020BDE8F0812046FCF790FEC6
:1034C000471C33462A4639462046FFF783FFF2E77A
:1034D00070B504460D4604B10DB9012070BDAC4273
:1034E00001D10020FAE705E0207808B90020F5E7CF
:1034F000641C6D1C2078FCF737FE06462878FCF724
:1035000033FE8642F0D02078FCF72EFE064628785F
:10351000FCF72AFE301AE1E7002003E00021034A0D
:103520001154401CC828F9DB7047000044170020E4
:1035300010B5044603E0012000F026F8641E002CBC
:10354000F9D110BD10B56FF00400FEF72BFF0A484B
:1035500000680A49B0FBF1F0094908700846007894
:1035600000EB4001C1EBC0104FF6FF7101EAC00053
:103570000449088010BD00008C08002000127A0069
:10358000C2080020C40800200146114A12884A439C
:103590004FF0E0235A6100229A611A46126942F004
:1035A00001021A6100BF4FF0E022106900F0010231
:1035B0001AB100F48032002AF5D04FF0E0221269EF
:1035C00022F001024FF0E0231A6100229A61704755
:1035D000C40800200146114A12784A434FF0E02304
:1035E0005A6100229A611A46126942F001021A6178
:1035F00000BF4FF0E022106900F001021AB100F4A0
:103600008032002AF5D04FF0E022126922F0010248
:103610004FF0E0231A6100229A617047C20800202F
:103620001CB50446002C63D1042317220021084650
:10363000FEF7AEFB04231B2210210020FEF7A8FB9F
:1036400004231F2220210020FEF7A2FB04232322B3
:1036500030210020FEF79CFB0120102389A20021CD
:1036600000904120FEF71AFD0120102385A2194683
:1036700000904120FEF712FD0120102381A220219D
:1036800000904120FEF70AFD012010237DA2302189
:1036900000904120FEF702FD012010210223CDE918
:1036A00000107948002102684C20FEF7B1FC01208F
:1036B00010210223CDE90010744802684C20FEF767
:1036C000A7FC012010210223CDE900107048202121
:1036D00002684C20FEF79CFC012010210223CDE95A
:1036E00000106C48302102684C20FEF791FC1CBD94
:1036F000012C62D104234B2200210846FEF748FB2F
:1037000004234F2210210020FEF742FB0423322223
:1037100020210020FEF73CFB04233622302100202C
:10372000FEF736FB0120102356A200210090412015
:10373000FEF7B4FC0120102352A21946009041204C
:10374000FEF7ACFC012010234EA220210090412066
:10375000FEF7A4FC012010234AA230210090412052
:10376000FEF79CFC012010210223CDE900104A48FD
:10377000002102684C20FEF74BFC0120102102239F
:10378000CDE90010454802684C20FEF741FC0120BD
:1037900010210223CDE900104148202102684C206D
:1037A000FEF736FC012010210223CDE900103D4830
:1037B000302102684C20FEF72BFC022C5ED1042342
:1037C000322200210846FEF7E3FA042336221021B4
:1037D0000020FEF7DDFA04233A2220210020FEF724
:1037E000D7FA04233A2230210020FEF7D1FA012033
:1037F000102324A2002100904120FEF74FFC01205D
:10380000102320A2194600904120FEF747FC01201A
:1038100010231CA2202100904120FEF73FFC012034
:10382000102318A2302100904120FEF737FC012020
:10383000102102230022CDE9001011464C20FEF792
:10384000E7FB0120102102230022CDE900104C20CB
:10385000FEF7DEFB0120102102230022CDE900103B
:1038600020214C20FEF7D4FB01201021022300224E
:10387000CDE9001030214C20FEF7CAFBFEF754FAC8
:1038800000BF34E73A000000500800205408002030
:10389000580800205C080020600800206408002010
:1038A000680800206C08002000BF054A128802F05A
:1038B0004002002AF9D0C2B2014B1B1D1A8070478A
:1038C000003801402DE9F05F14490888FDF798F8A9
:1038D00083464FF08B41FCF7CDFE8246FDF7F3F8AF
:1038E000074600220E4BFCF7AAFF0546FDF72EF90E
:1038F00081460C494846FCF78BFE044621460A489F
:10390000FCF780FE05464FF08041FCF781FE04463F
:103910002046FDF787F8BDE8F09F0000BC080020B6
:103920000000144000002041000048422DE9F0470B
:103930000C494888FDF769F807460B4A0B4BFCF722
:10394000F0FF0546FDF702F98146FDF76BF80446E6
:10395000632C01DD632000E0204604462046BDE8DC
:10396000F0870000BC0800207B14AE47E17A444099
:103970002E2070472DE9F04105460E4617460024DB
:1039800005B116B90020BDE8F081AC685FB100E078
:1039900024688CB1206A78B13046216AFCF727FC94
:1039A0000028F5D108E000E024682CB13046216AF7
:1039B000FFF78EFD0028F7D10CB1206A08B900206E
:1039C000E1E72046DFE7000070B50026002400256F
:1039D0003C480068FFF7F6FC06463B4800680928AB
:1039E00064D2DFE800F063050B11181F304152006C
:1039F0000120364908603649086057E00020334905
:103A000008603349086051E001203049091F08600F
:103A1000304908604AE000202C49091F08602D4900
:103A2000086043E02CA13046FFF7B6FC04462CA109
:103A30003046FFF7B1FC05462C49606908602C4907
:103A40006869086032E02BA13046FFF7A5FC044608
:103A50002AA13046FFF7A0FC05462B4960690860A3
:103A60002A496869086021E029A13046FFF794FCE3
:103A7000044629A13046FFF78FFC054629496069B5
:103A8000086029496869086010E028A13046FFF7FE
:103A900083FC044627A13046FFF77EFC05462849F3
:103AA0006069086027496869086000BF00BFFFF7C8
:103AB00033FD3046FFF744FC0020034908602249EB
:103AC000088070BDCC0800207008002098012142B9
:103AD000000800200408002074656D705F75700098
:103AE00074656D705F646F776E0000005008002091
:103AF0005408002068756D5F7570000068756D5F13
:103B0000646F776E00000000580800205C080020F9
:103B100073756E5F7570000073756E5F646F776E9E
:103B2000000000006008002064080020736D6F67CB
:103B30005F757000736D6F675F646F776E00000074
:103B4000680800206C080020D4080020002001E054
:103B5000411CC8B20A28FBDB7047000070B5044660
:103B6000002520E004F0800018B140200F490860D3
:103B700003E040200D49091D0860FFF7E7FF202002
:103B80000A490860FFF7E2FF20200849091D086084
:103B9000072D02D14020091F08606006040EFFF7C0
:103BA000D5FF681CC5B2082DDCDB70BD100C0140D0
:103BB00010B540200949086020200860FFF7C6FFC3
:103BC00040200649091D0860FFF7C0FF2020034977
:103BD000091D0860FFF7BAFF10BD0000100C01407E
:103BE00010B54020054908602020091F0860FFF734
:103BF000ADFF40200149091F086010BD140C0140B1
:103C000010B540200C490860FFF7A0FF20200A49AA
:103C10000860FFF79BFF08480838006800F0400084
:103C200008B1012400E0002420200349091D086098
:103C3000FFF78CFF204610BD100C01402DE9F0412C
:103C40000B3020F00706104D19E02068B04215D364
:103C5000B0420AD9871B201DD4F80480FCF78AFAE9
:103C6000A019C0E90078286004E060682860201D81
:103C7000FCF780FA201D2660BDE8F081251D2C6828
:103C8000002CE2D10020F7E7EC0800200EB5FFF78A
:103C900059FCFDF7C9FEFDF79BFFFDF731FA4FF424
:103CA000E13000F073FE41F61F4141F2873000F031
:103CB0000DFE44F61F6143F6972000F037FE032304
:103CC0002F2210212620FEF763F861486149624ADD
:103CD000624BCDE900210290614A62496248FDF7DA
:103CE00027FCFDF7B2FA00BFFDF7ECFA0028FBD184
:103CF000FDF71AFF00205D490860A8E0FDF7B8FB5A
:103D00005B495C48FDF732FBFFF7DCFD5A49086070
:103D1000FFF70CFE59490860012010210223CDE96C
:103D200000105448027800212D20FEF771F901207F
:103D300010210223CDE900104D4802782D20FEF716
:103D400067F9012010210223CDE900104B48202102
:103D500002684C20FEF75CF9012010210223CDE916
:103D600000104548302102684C20FEF751F9FDF75C
:103D7000DBFF43480068C0B900BF41480068002825
:103D8000FBD000F0E7F83F48006830B901233E223D
:103D900002216920FDF7FCFF07E0012010233AA271
:103DA000022100906920FEF779F93548203000683B
:103DB00050BB00BF3248203000680028FAD031489C
:103DC000006808B9012000E000202E49086008467C
:103DD000006878B90020254908602C49C1F898018D
:103DE0002249091F086001233E2202216920FDF7B4
:103DF000CFFF07E00120102323A2022100906920B9
:103E0000FEF74CF9FDF790FF2148006808B1FFF775
:103E1000DBFD2048006890B1184800680090164803
:103E2000036813480278134801781B48FDF784FCA7
:103E300000201849086000211848FEF74EFB114881
:103E4000006808B100F02CF86420FFF79DFB55E7EF
:103E50002F0800201808002017080020190800204B
:103E6000200800200E0800200808002094012142AC
:103E7000890800208808002080080020840800208D
:103E8000108121427C0800202020000000002142F7
:103E900070080020740800203E0800200008004040
:103EA00010B50022002100201F4B1B68A3B91F4B37
:103EB0001B781F4C2468A34206DB1E4B1B781E4C4C
:103EC0002468A34200DC01221AB101231B4C2360A9
:103ED00002E00023194C2360194B1B68194C24681D
:103EE000A34201DB01210120174B1B688BB9174B43
:103EF0001B68174C2468A34201DB0121012021B17A
:103F000001230E4C241F236003E000230B4C241FCD
:103F1000236020B10123094C083C236003E0002307
:103F2000064C083C236010BD0008002088080020D3
:103F300050080020890800205C08002098012142D8
:103F40008008002060080020040800208408002069
:103F500068080020F8B50025002400260027FDF79A
:103F6000E3FD0120102346A2002100907020FEF7FF
:103F700095F882E02846FFF753FB4248006878BB7B
:103F800000BF404800680028FBD02046E11704EB42
:103F900091718910A4EB81010F01641C2046E11787
:103FA00004EB91718910A4EB8101042202FB05143A
:103FB0002046E11704EB91718910A4EB81010E01F9
:103FC0000120F9B2102330A200907020FEF766F8AD
:103FD0000120F1B210232AA200907020FEF75EF8B3
:103FE0002848001D0068D0B900BF2648001D0068A1
:103FF0000028FAD0691C084601EBD0714910A0EBEB
:1040000041010D46AC00FDF78FFD012010231CA2DD
:10401000002100907020FEF741F8FDF785FE194859
:104020000830006848B900BF16480830006800280A
:10403000FAD00121204600F0A9FB12480C3000689C
:1040400050B900BF0F480C3000680028FAD04FF07C
:10405000FF31204600F09AFB0A482038006840B93A
:1040600000BF0848203800680028FAD0FDF75CFD42
:1040700004E0FFF7A9FCFDF757FE7BE700BFF8BDA2
:104080003C00000030812142200000002DE9F04179
:1040900080460C4600250027E068B0F57A7F02D301
:1040A0000020BDE8F081E068401CE060A168206865
:1040B000405C5B2800D05FE0A068401CA060204608
:1040C000FFF71AF94CB1D4E90110884205D2A16872
:1040D0002068405C5D2800D13FE01CB1D4E90110AC
:1040E000884203D3A068401EA06045E0A068401E3F
:1040F000A06000BF04F11000FFF757F9064606B9AB
:104100003AE015B93546374602E03E6077603746FB
:10411000A068401CA0602046FFF7EEF82146384614
:1041200000F060FA00B927E02046FFF7E5F844B157
:10413000D4E90110884204D2A1682068405C2C2890
:10414000D8D044B1D4E90110884204D2A1682068D3
:10415000405C5D2800D00FE000BFE068401EE060DA
:1041600005B16F602020C8F80C00C8F80850A0689E
:10417000401CA060012094E715B12846FFF7E0F845
:1041800000208EE702460023002100BF23E0505CA0
:10419000302806DB505C392803DC505C303803449F
:1041A00015E0505C412806DB505C462803DC505C7F
:1041B000373803440BE0505C612806DB505C66280E
:1041C00003DC505C5738034401E0002070470329AA
:1041D00000D21B01491C0429D9D31846F6E7000078
:1041E0002DE9F04391B080460C4600BF00201090AE
:1041F000FFF7BEFB814600250CB1206818B90020EE
:1042000011B0BDE8F08300253CE0A16820680844B7
:10421000405D342820D00ADCA0F12B0009282ED2E2
:10422000DFE800F0202D212A2D1617181900382854
:1042300016D006DC352810D036280FD037281ED1EE
:104240000DE039280DD045280FD0652817D10BE097
:1042500000BF00BF00BF00BF00BF00BF00BF00BF66
:1042600000BF00BF00BF00BF00BFA16820680844B6
:10427000405D0DF8050003E00DF8059000E00AE050
:1042800000BF6D1C3F2D05D224B1A0682844616891
:104290008842BAD300BF00200DF8050010A9684677
:1042A00000F006FB06460F4668461099884201D189
:1042B0000020A5E7C8E90667144A154B3046394681
:1042C000FCF72CFC04D86FF00040C8F8140011E093
:1042D0000022104B30463946FCF708FC04D84FF05A
:1042E0000040C8F8140005E030463946FCF7B3FB3F
:1042F000C8F814000820C8F80C00A0686A46109995
:10430000891A0844A06001207AE700000000C0FF7D
:10431000FFFFDF410000E0C12DE9F04180460C467F
:1043200000260025E068B0F57A7F02D30020BDE8C2
:10433000F081E068401CE06044B1D4E9011088429B
:1043400004D2A1682068405C7B2800D07DE0A06892
:10435000401CA0602046FEF7CFFF4CB1D4E901100D
:10436000884205D2A1682068405C7D2800D15DE0CC
:104370001CB1D4E90110884203D3A068401EA0609C
:1043800063E0A068401EA06000BF04F11000FFF7CA
:104390000CF8074607B958E016B93E463D4602E01C
:1043A0002F607D603D46A068401CA0602046FEF75F
:1043B000A3FF2146284600F04EF800B945E020460C
:1043C000FEF79AFF286928620020286144B1D4E9E9
:1043D0000110884204D2A1682068405C3A2800D0CD
:1043E00033E0A068401CA0602046FEF785FF214610
:1043F000284600F0F7F800B927E02046FEF77CFFDA
:1044000044B1D4E90110884204D2A1682068405C1C
:104410002C28BAD044B1D4E90110884204D2A16852
:104420002068405C7D2800D00FE000BFE068401E9F
:10443000E06006B175604020C8F80C00C8F808605C
:10444000A068401CA060012071E716B13046FEF75D
:1044500077FF00206BE72DE9F84F80460C46A168F6
:1044600020680844461CA16820680844451C0020B8
:1044700000900027A1682068405C222800D0A6E0B8
:104480004FF0000AD1460DE028785C2809D1681C5D
:104490002168401A6168884200D398E009F1010957
:1044A0006D1C6D1C2068281A6168884202D2287829
:1044B0002228E9D12068281A6168884202D2287827
:1044C000222800D083E0A16820680844281AA0EBC5
:1044D000090A0AF1010021698847074607B976E011
:1044E000009761E030785C2807D016F8010B00993E
:1044F00008700098401C009056E04FF00209A81B7D
:10450000012800DA63E07078662819D008DC2228D8
:1045100032D02F2832D05C282FD0622840D108E03A
:104520006E2814D0722819D074281ED0752837D15F
:104530002BE00820009908700098401C009030E0A3
:104540000C20009908700098401C009029E00A2077
:10455000009908700098401C009022E00D200099FE
:1045600008700098401C00901BE00920009908701A
:104570000098401C009014E000BF00BF70780099C4
:1045800008700098401C00900BE06A4629463046AF
:1045900000F052FA8146B9F1000F00D117E000E0B7
:1045A00015E000BF4E4400BFAE429BD300200099EF
:1045B00008701020C8F80C00C8F810702068281A7D
:1045C000A060A068401CA0600120BDE8F88F17B172
:1045D00038466169884716B12068301AA06000200B
:1045E000F3E7000070B505460C460CB1206808B929
:1045F000002070BD9CB1A068001D616888420ED883
:10460000A2682168881804223FA1FBF7FEFD30B99B
:104610000420E860A068001DA0600120E9E79CB1CB
:10462000A068401D616888420ED8A2682168881879
:10463000052237A1FBF7E9FD30B90120E860A06849
:10464000401DA0600120D4E7ACB1A068001D6168E6
:10465000884210D8A2682168881804222EA1FBF78E
:10466000D4FD40B90220E86001206861A068001D07
:10467000A0600120BDE76CB1D4E90110884209D2E5
:10468000A1682068405C222804D121462846FFF713
:10469000E2FEAEE7BCB1D4E90110884213D2A168B2
:1046A0002068405C2D2809D0A1682068405C302833
:1046B00009DBA1682068405C392804DC21462846D3
:1046C000FFF78EFD95E76CB1D4E90110884209D25D
:1046D000A1682068405C5B2804D121462846FFF78A
:1046E000D5FC86E76CB1D4E90110884209D2A168F3
:1046F0002068405C7B2804D121462846FFF70CFE49
:1047000077E7002075E700006E756C6C0000000014
:1047100066616C73650000007472756500000000CE
:104720002DE9F04704008A4616D054F8047CD4F8EA
:1047300000903E1F564500D956462046FEF720F908
:1047400005468846324621465046FFF777FA40B183
:10475000C0F80090BDE8F087BDE8F0470846FEF7D6
:104760003DB944E9017955B129686A18211F8A4287
:1047700002D9611B091F2960C5F80480EAE7024AD3
:10478000C2F80080E6E70000EC08002010B5024601
:10479000082A5DD2DFE802F0040F1A25303B4651AB
:1047A0002C4B1B685818002801DD034600E000234D
:1047B000284C23604CE0284B1B685818002801DD6A
:1047C000034600E00023244C236041E0234B1B6898
:1047D0005818002801DD034600E000231F4C236029
:1047E00036E01F4B1B685818002801DD034600E027
:1047F00000231B4C23602BE01A4B1B685818002821
:1048000001DD034600E00023164C236020E0164B38
:104810001B685818002801DD034600E00023124CF5
:10482000236015E0114B1B685818002801DD034672
:1048300000E000230D4C23600AE00D4B1B68581864
:10484000002801DD034600E00023094C236000BF7F
:1048500000BF10BD50080020540800205808002058
:104860005C08002060080020640800206808002020
:104870006C08002010B504461CB1206808B1A0687F
:1048800008B1002010BD7CB1A068001D616888429D
:104890000AD2A26821688818032204A1FBF7B5FC9C
:1048A00010B9A068C01CA0602046EBE7EFBBBF00BA
:1048B00000B583B00A460021CDE9001101466846E3
:1048C000FCF713FADDE9000103B000BD7FB5054632
:1048D0000C4601210220FDF73FFCADF80850ADF871
:1048E00004400020ADF80A00ADF8060001A90E480A
:1048F000FDF7F6FD012211460B48FDF7E5FD1D20F1
:104900008DF8000001208DF8010003208DF80200D1
:1049100001208DF803006846FDF7CEF8002102481B
:10492000FDF7B5FD7FBD0000000400407FB50546E2
:104930000C4601210420FDF70FFCADF80850ADF83E
:1049400004400020ADF80A00ADF8060001A90E48A9
:10495000FDF7C6FD012211460B48FDF7B5FD1E20EF
:104960008DF8000002208DF8010003208DF8020070
:1049700001208DF803006846FDF79EF801210248EA
:10498000FDF785FD7FBD00000008004010B586B032
:104990000446012144F20400FDF7EEFB4FF40070E1
:1049A000ADF8140003208DF8160018208DF81700BC
:1049B00005A91F48FCF7DAFE4FF48060ADF814003B
:1049C00004208DF8170005A91948FCF7CFFE252013
:1049D0008DF8000003208DF801008DF80200012001
:1049E0008DF803006846FDF767F801940020ADF8E4
:1049F0000800ADF80A00ADF80C00ADF810000C206E
:104A0000ADF80E0001A90B48FDF722FF012240F28C
:104A100025510848FDF7F7FE012240F224410548E0
:104A2000FDF7F1FE01210348FDF7B7FE06B010BD0A
:104A300000080140003801402DE9FF5F80468946AB
:104A4000154600240026C2460020039083460290AB
:104A50000190A9EB0A00062800DA81E00AF10200C1
:104A6000FFF790FB0646B6F55C4F03D3B6F5604FF3
:104A700000D275E0B6F5584F29D3B6F55C4F26D273
:104A80000AF10607002000900C200290A9EB070015
:104A9000062800DA64E038785C2802D17878752836
:104AA00000D05DE0B81CFFF76DFB00900098B0F5FA
:104AB0005C4F03D30098B0F5604F00D350E0C6F3CD
:104AC0000901009861F39F2000F5803402E0062080
:104AD00002903446802C02D20120039018E0B4F5F5
:104AE000006F04D202200390C020019010E0B4F5C2
:104AF000803F04D203200390E020019008E0B4F549
:104B0000881F04D204200390F020019000E027E0E9
:104B10000398401E00F0FF0B0BE004F0BF0040F0D4
:104B20008000296801F80B00A409ABF1010000F036
:104B3000FF0BBBF1000FF0DC0398012804DD0198A6
:104B400020432968087003E004F07F00296808709A
:104B50002968039808442860029804B0BDE8F09FD3
:104B60000020FAE72DE9F04106460F4615460020E1
:104B70000F4908803046FDF7DFFE13E00120FEF705
:104B800003FD0B48008800F4004058B1002008499C
:104B9000088039460748FBF711FB044614B1012091
:104BA000BDE8F081681E051EE8D100BFF8E70000EF
:104BB000D40800204417002000000000000000007E
:104BC000002F000000000700070000147F147F146E
:104BD00000242A7F2A1200626408132300364955F4
:104BE000225000000503000000001C2241000000CC
:104BF00041221C000014083E08140008083E080862
:104C0000000000A0600000080808080800006060BC
:104C10000000002010080402003E5149453E0000FB
:104C2000427F4000004261514946002141454B31DD
:104C3000001814127F10002745454539003C4A49A9
:104C4000493000017109050300364949493600061B
:104C50004949291E00003636000000005636000083
:104C600000081422410000141414141400004122FE
:104C7000140800020151090600324959513E007CD6
:104C80001211127C007F49494936003E41414122C0
:104C9000007F4141221C007F49494941007F0909A9
:104CA0000901003E4149497A007F0808087F000059
:104CB000417F4100002040413F01007F0814224114
:104CC000007F40404040007F020C027F007F0408CC
:104CD000107F003E4141413E007F09090906003E28
:104CE0004151215E007F0919294600464949493151
:104CF0000001017F0101003F4040403F001F204074
:104D0000201F003F4038403F006314081463000731
:104D10000870080700615149454300007F41410088
:104D200000552A552A55000041417F000004020128
:104D30000204004040404040000001020400002006
:104D400054545478007F4844443800384444442044
:104D500000384444487F00385454541800087E09F1
:104D600001020018A4A4A47C007F080404780000B9
:104D7000447D4000004080847D00007F1028440076
:104D80000000417F4000007C04180478007C080487
:104D9000047800384444443800FC242424180018C3
:104DA000242418FC007C08040408004854545420AF
:104DB00000043F444020003C4040207C001C204038
:104DC000201C003C4030403C004428102844001C7B
:104DD000A0A0A07C004464544C4414141414141473
:104DE0000000000000000000000000000000FC00C7
:104DF0000000000002000000000C020C0200000095
:104E00000000000090D0BCD0BC9000030003000064
:104E10001824FE448C000302070201001824D8B0B5
:104E20004C80000300010201C038E438E0000102B8
:104E3000020102020806000000000000000000005D
:104E4000000000F80402000000010204000204F85F
:104E500000000004020100009060F8609000000073
:104E6000010000002020FC202000000001000000C4
:104E700000000000000008060000000020202020A4
:104E80002000000000000000000000000000000200
:104E9000000000000080601C02000403000000000D
:104EA000F8040404F8000102020201000008FC00FA
:104EB00000000002030200001884442418000302CA
:104EC0000202020008042424D800010202020100A8
:104ED00040B088FC80000000000302003C24242431
:104EE000C400010202020100F824242CC0000102C7
:104EF000020201000C04E41C040000000300000096
:104F0000D8242424D8000102020201003844444479
:104F1000F800000302020100000010000000000081
:104F20000200000000002000000000000600000059
:104F30000020508804020000000001029090909030
:104F400090000000000000000002048850200002D1
:104F5000010000001804C424180000000200000032
:104F6000F804E494F80001020202020000E09CF060
:104F7000800002030000030204FC2424D800020382
:104F800002020100F80404040C0001020202010004
:104F900004FC0404F80002030202010004FC24746F
:104FA0000C0002030202030004FC24740C00020340
:104FB00002000000F0080444CC400001020201009D
:104FC00004FC2020FC040203000003020404FC048F
:104FD0000400020203020200000404FC04040604AC
:104FE0000403000004FC24D00C04020302000302AA
:104FF00004FC04000000020302020203FC3CC03C6B
:10500000FC0003000300030004FC30C4FC040203A2
:1050100002000300F8040404F80001020202010087
:1050200004FC24241800020302000000F884840415
:10503000F80001020207050004FC24649800020342
:1050400002000302182424448C000302020201001F
:105050000C04FC040C0000020302000004FC00002D
:10506000FC04000102020100047C80E01C0400003A
:10507000030000001CE03CE01C00000300030000F3
:10508000049C609C0400020300030200041CE01C5A
:1050900004000002030200000C84641C04000203EC
:1050A000020203000000FE020200000007040400E8
:1050B000000E30C00000000000010200000202FEED
:1050C00000000004040700000004020400000000C7
:1050D00000000000000000000000080808080808A0
:1050E0000000020000000000000000000040A0A03E
:1050F000C00000010202030204FC2020C0000003E3
:105100000202010000C02020600000010202020033
:1051100000C02024FC0000010202030200C0A0A085
:10512000C0000001020202000020F8242404000252
:10513000030202000040A0A0602000070A0A0A043F
:1051400004FC2020C0000203020003020020E4004F
:105150000000000203020000000020E40000080834
:105160000807000004FC80E0202002030200030284
:105170000404FC000000020203020200E020E02020
:10518000C00003000300030020E02020C000020351
:105190000200030200C02020C00000010202010042
:1051A00020E02020C000080F0A02010000C02020DB
:1051B000E0000001020A0F0820E040202000020366
:1051C000020000000060A0A0200000020202030014
:1051D0000020F820000000000102020020E0002072
:1051E000E00000010202030220E0208060200000B5
:1051F000030100006080E080600000030003000005
:1052000020608060200002030003020020E0208074
:1052100060200808070100000020A06020000002B4
:1052200003020200000020DE02000000000704006C
:10523000000000FF00000000000F00000002DE2060
:105240000000000407000000020102040402000044
:10525000000000000000000000000000000000004E
:1052600000000000000000F8000000000000003313
:105270003000000000100C06100C060000000000BA
:105280000000000040C07840C0784000043F0404A3
:105290003F040400007088FC08300000001820FF64
:1052A000211E0000F008F000E018000000211C039F
:1052B0001E211E0000F00888700000001E2123241B
:1052C0001927211010160E00000000000000000039
:1052D00000000000000000E01804020000000007C9
:1052E0001820400000020418E000000000402018D0
:1052F00007000000404080F0804040000202010FA3
:1053000001020200000000F0000000000101011F86
:1053100001010100000000000000000080B07000EA
:10532000000000000000000000000000000101017A
:105330000101010100000000000000000030300009
:1053400000000000000000008060180400601806E3
:105350000100000000E010080810E000000F10201D
:1053600020100F00001010F8000000000020203F67
:1053700020200000007008080888700000302824F1
:105380002221300000300888884830000018202092
:1053900020110E000000C02010F8000000070424B7
:1053A000243F240000F808888808080000192120FC
:1053B00020110E0000E0108888180000000F112056
:1053C00020110E0000380808C83808000000003F0F
:1053D000000000000070880808887000001C22216E
:1053E00021221C0000E010080810E000000031221B
:1053F00022110F00000000C0C000000000000030BB
:10540000300000000000008000000000000080600C
:10541000000000000000804020100800000102048D
:105420000810200040404040404040000404040474
:105430000404040000081020408000000020100830
:1054400004020100007048080808F0000000003065
:1054500036010000C030C828E810E00007182724F3
:1054600023140B000000C038E0000000203C2302A1
:105470000227382008F8888888700000203F202004
:1054800020110E00C0300808080838000718202036
:105490002010080008F808080810E000203F20202D
:1054A00020100F0008F88888E8081000203F20200E
:1054B0002320180008F88888E8081000203F200002
:1054C00003000000C030080808380000071820203A
:1054D000221E020008F808000008F808203F2101F9
:1054E00001213F20000808F8080800000020203FA4
:1054F0002020000000000808F8080800C080808014
:105500007F00000008F888C028180800203F20010C
:105510002638200008F8080000000000203F202066
:105520002020300008F8F800F8F80800203F003F7D
:10553000003F200008F830C00008F808203F200095
:1055400007183F00E01008080810E0000F102020A6
:1055500020100F0008F808080808F000203F21017B
:1055600001010000E01008080810E0000F182424D2
:1055700038504F0008F8888888887000203F200045
:10558000030C3020007088080808380000382021FB
:1055900021221C00180808F8080818000000203F05
:1055A0002000000008F808000008F808001F20206C
:1055B00020201F000878880000C83808000007383D
:1055C0000E010000F80800F80008F800033C07008E
:1055D000073C0300081868808068180820302C03F6
:1055E000032C30200838C800C83808000000203FCD
:1055F0002000000010080808C838080020382621BC
:1056000020201800000000FE020202000000007FBF
:1056100040404000000C30C00000000000000001CD
:105620000638C00000020202FE00000000404040B8
:105630007F000000000004020202040000000000DD
:10564000000000000000000000000000808080805A
:105650008080808000020204000000000000000042
:1056600000000000000080808080000000192422DB
:1056700022223F2008F8008080000000003F112017
:1056800020110E000000008080800000000E11201C
:1056900020201100000000808088F800000E1120FA
:1056A00020103F200000808080800000001F222208
:1056B00022221300008080F0888888180020203F74
:1056C000202000000000808080808000006B949487
:1056D0009493600008F8008080800000203F210043
:1056E00000203F2000809898000000000020203F0C
:1056F00020200000000000809898000000C08080FA
:10570000807F000008F8000080808000203F240295
:105710002D302000000808F8000000000020203F85
:10572000202000008080808080808000203F20003A
:105730003F20003F8080008080800000203F2100CB
:1057400000203F200000808080800000001F20207B
:1057500020201F00808000808000000080FFA120AA
:1057600020110E000000008080808000000E1120BB
:1057700020A0FF80808080008080800020203F214A
:1057800020000100000080808080800000332424FD
:1057900024241900008080E0808000000000001FA9
:1057A000202000008080000000808000001F20205A
:1057B00020103F20808080000080808000010E301B
:1057C0000806010080800080008080800F300C037C
:1057D0000C300F0000808000808080000020312E7F
:1057E0000E312000808080000080808080818E705B
:1057F0001806010000808080808080000021302C0D
:105800002221300000000000807C02020000000025
:10581000003F404000000000FF00000000000000CA
:10582000FF0000000002027C800000000040403FBA
:105830000000000000060101020204040000000054
:105840000000000000000000000000000000000058
:105850000000000000000000000000000000000048
:1058600000000000000000000000000000F0F0F068
:10587000000000000000000000017F0100000000A7
:1058800000000000001C1C1C0000000000008060E4
:10589000301C8C60301C0C00000000000000000078
:1058A00000000000000000000000000000000000F8
:1058B000000000E00000000000E000000086E69F1D
:1058C00086868686E69F860000011F010101010190
:1058D0001F010100000080C06020F820E0C000002F
:1058E000000003070C18FF70E18100000000070FA3
:1058F00010107F100F070000806020608000000003
:10590000E02000000F3020309F70DC371030C000E6
:105910000000100E03000718101807000000C02038
:1059200020E0C0000000000080E01F38E88703C4CA
:105930003C040000070F1810100B070D1010080092
:1059400000808C4C380000000000000000000000C7
:105950000000000000000000000000000000000047
:105960000000000000000000000080E0300804009B
:105970000000000000FEFF01000000000000000029
:105980000000030F1820400000040830E0800000F1
:10599000000000000000000001FFFE000000000009
:1059A000004020180F03000000000000000000006D
:1059B0000000C00000000000004266663C18FF18AE
:1059C0003C6666420000000000000300000000008A
:1059D0000000000000008000000000000010101017
:1059E0001010FF1010101010000000000000030045
:1059F00000000000000000000000000000000000A7
:105A000000000000000000000000000000808C4C3E
:105A1000380000000000000000000000000000004E
:105A200000000000001010101010101010101000D6
:105A30000000000000000000000000000000000066
:105A40000000000000000000000000000000000056
:105A50000000000000001C1C1C00000000000000F2
:105A60000000000000000000E0380C000000000012
:105A700080701C03000000000060380E0100000070
:105A800000000000000080C060202060C080000096
:105A900000FEFF010000000001FFFE000001070EF4
:105AA000181010180E0701000000808080C0E00070
:105AB000000000000000000000FFFF0000000000E8
:105AC00000001010101F1F10101000000080402058
:105AD00020202060C08000000003030080402038A8
